:020000040800F2
:10000000E8070020D5000008890B0008210B000834
:1000100000000000000000000000000000000000E0
:10002000000000000000000000000000D30F0008E6
:100030000000000000000000750C0008B910000866
:100040000501000805010008050100080501000878
:10005000050100080501000805010008B9070008AE
:100060000501000805010008050100080501000858
:100070000501000805010008050100080501000848
:10008000050100080501000805010008F511000838
:100090000501000805010008050100080501000828
:1000A0000501000805010008050100087D1300088E
:1000B0000501000805010008050100080501000808
:1000C0000348854600F014FB00480047B12D0008A6
:1000D000E80700200C4880F308880C480168090EE6
:1000E0000B4A914205D10B480B4901600B480C4962
:1000F00001600C4880470C480047FEE7FEE7FEE73A
:10010000FEE7FEE7FEE70000E8070020040000002D
:100110001F00000018100240010000000000014014
:1001200000000000E1100008C100000830B50B46D7
:10013000014600202022012409E00D46D5409D42C1
:1001400005D31D469540491B254695404019154647
:10015000521E002DF1DC30BD03460B439B0703D03C
:1001600009E008C9121F08C0042AFAD203E00B787C
:100170000370401C491C521EF9D2704730B504462A
:100180000020034600E05B1C934203D2E05CCD5CA0
:10019000401BF8D030BD0000F0B507460846584077
:1001A00087B0C00F049048000E4659004008490827
:1001B000BC1A884105D2384631461E4617460B46C2
:1001C00002465800400810434CD0300D03904005C3
:1001D0005900400D490D0590401A0290402872DAEE
:1001E00018030121000B09050843019004980092AF
:1001F000002805D0019952420020884100920190C8
:10020000029840210A1A0199009800F0C9F90546A0
:100210000C466B4607CB00F0E4F9C0197141039A14
:100220000E0D0023D71756401A467A40164344D085
:10023000049A002A2DD0029A012A039A15DC12058D
:10024000C01A914101263605001C7141D20F059E4E
:10025000D2070093019202962A46234600F0E1F964
:1002600007B0F0BD38463146FAE71605224A0F4678
:10027000B218C01AB74101210905001C4F410018EE
:100280007F41114618187941E20F10436D196441FE
:1002900013E0E2076D0815436408C2071443039A8C
:1002A00001261205C01A91413605001C7141CE0786
:1002B000400830434908C01851412A46234600F0FF
:1002C000A3F9CDE7FFE7049801224000C117121AF5
:1002D00000238B4104983146C417381AA141EEE738
:1002E00030B40124E407634030BC55E730B4012446
:1002F000E407614030BC4FE70000E0FFF0B51FB4F9
:1003000088B00B990998002448400999C00F49000A
:1003100049080991C0070B990090490049080B91C1
:1003200009990898A64608431CD00B990A980843D7
:1003300018D0099801244000420D4800410D099849
:1003400024050003000B204309900B980003000BC9
:1003500020430B9050181C4940180022019014466D
:10036000104605E0002001460DB0F0BD032801DA7B
:10037000034600E003239C46C11A0AAE0AE05F0070
:1003800008ADED5B4F00F75B7D430027AA187C4169
:10039000491C5B1E6145F2DD410004AB5A52210449
:1003A000120C0A43240C401C0828DFDB0198029041
:1003B0000099704601910090059B049A0799069850
:1003C00000F02FF9D0E700000DFCFFFFF0B50C4660
:1003D0005C4085B0E40FE40703944C0000266408F9
:1003E00059009446490802460296224321D06246AB
:1003F0000A431ED06200570D4A000E032303550D19
:10040000012402462C492405781B1B0B360B40188F
:1004100023432643614600901C46501AB44103D33F
:100420000098401C009002E0921800985B41002860
:1004300003DA0020014605B0F0BD002001210905C6
:100440000746864611E064461D46141BB54106D397
:100450006546521BB341744607430C43A646CD077D
:1004600040084908284392185B4105460D43EAD1EC
:100470001046184313D06046194650407140084357
:1004800006D06046101AB34106D20122002306E0CE
:1004900000220123DB0702E00122D243531000981F
:1004A00074460105381C6141029C039D0019694195
:1004B00000F0AAF8BFE70000FD0300000EB5054AF2
:1004C0000292002200921346019200F0AAF803B0B3
:1004D00000BD0000330400004A0009030123090B9A
:1004E0001B0519430A4B10B5520D9A4202DA00203F
:1004F000014610BD064B34339A4203DC9A1A00F0D1
:100500005FF810BD034BD21800F04AF810BD000090
:10051000FF030000CDFBFFFF10B5002904DB012421
:10052000E40740428C412146002B04DB1C4601239A
:10053000DB075242A3418B4200D1824210BD000032
:10054000F0B51FB40646002082B005464024019154
:1005500000901BE0019922460F46304600F030F82B
:10056000049A059B801A994110D3104619462246D9
:1005700000F016F8361A8F4101972246012000211B
:10058000009F00F00DF838184D4100902046641E81
:100590000028DFDC019B00982946324607B0F0BDF9
:1005A00010B5202A04DB0146203A9140002010BDFE
:1005B000914020239C1A0346E3401943904010BD0C
:1005C00010B5202A04DB0846203AD040002110BD97
:1005D0000B46D340D0402024A21A9140084319462C
:1005E00010BD10B5202A06DBCB170846203A104173
:1005F000C1170B4306E00B461341D0402024A21A3A
:1006000091400843194610BD10B5002B08DA0024AC
:10061000401C614192185B411A4301D140084000DF
:1006200010BDF0B51FB482B005460C0003D00846DB
:1006300001F0C8F802E001F0C5F820300246009051
:1006400021462846FFF7ACFF049B059A04460F4657
:1006500018431143084314D0184610431BD0009888
:1006600040210A1A18460599FFF7AAFF05460E46CB
:10067000009A05990498FFF793FF084305D00120DD
:1006800004E02046394607B0F0BD0020C1170543FD
:100690000E432C43374300990E986305401A7905A1
:1006A000E40A00220C43FD0A0A3002D5002001466C
:1006B000E9E70105101969410C9C0D9D001969417C
:1006C000FFF7A2FFDFE7000010B5002904DB0124DB
:1006D000E40740428C412146002B04DB1C460123E9
:1006E000DB075242A341994200D1904210BD000065
:1006F000064C0125064E05E0E36807CC2B430C3C75
:1007000098471034B442F7D3FFF7DEFCE44C0008FE
:10071000044D000870B58C180578401C6B075B0F02
:1007200001D10378401C2A1106D10278401C03E055
:1007300006780E70401C491C5B1EF9D12B0705D4AE
:100740000023521E0DD40B70491CFAE70378401C9D
:10075000CB1A921C03E01D780D70491C5B1C521EC5
:10076000F9D5A142D8D3002070BD000001B581B0F9
:100770000022009200200F490A88009215E00D49DE
:1007800009886A461288914206DB0A4909886A4646
:100790001288891A88B208E0694609880022D24383
:1007A000511A044A1288891888B201998842E6D3FE
:1007B0000CBD00001401002010B50120000300F062
:1007C0003BF8002829D00120000300F02FF8012079
:1007D0001249087000210F2001F0BFFF1049086086
:1007E00008460068012189030840002803D0012041
:1007F0000C4908700BE00A480068012149040840D0
:10080000002804D008480078401C074908700448B4
:10081000002102680F2002F097F910BDE8000020C7
:10082000B0000020E9000020EA00002001494861F2
:10083000704700000004014001460020044A52694C
:100840000A40002A01D0012000E00020704700008B
:1008500000040140002120498279002A35D00A464F
:10086000126803689A430B461A600A465268036886
:100870009A430B465A60027951180A6803681A4372
:100880000A60154A926803689A43134B9A601A46A5
:10089000D26803689A43104BDA604279102A0CD16F
:1008A0001A46926803681A430B4B9A601A46D2683C
:1008B00003681A43084BDA600DE007494279511882
:1008C0000A6803681A430A6005E0027951180A6849
:1008D00003689A430A6070470004014004200D49F0
:1008E000C968C907C90F002901D0012010E00949D2
:1008F000C96810221140002901D0022008E00549F2
:10090000C96804221140002901D0032000E004201E
:10091000704700000020024003480069802108431E
:100920000149086170470000002002400348006947
:1009300001214902884301490861704700200240B3
:1009400030B5054604240B20000400F067F8044687
:10095000042C36D11C480069202108431A4908613B
:100960000846006940210843174908610B2000042C
:1009700000F054F80446042C1BD1134800692021D0
:1009800088431149086108460069102108430E494F
:1009900008610E4805800B20000400F03FF8044673
:1009A000052C0ED0084800691021884306490861CB
:1009B00007E0052C05D0044800692021884302493E
:1009C0000861204630BD00000020024000F8FF1FF3
:1009D00006480069012149020840002804D1044862
:1009E0000249886003488860704700000020024088
:1009F00023016745AB89EFCD054800698021084098
:100A0000002804D003480249486003484860704702
:100A10000020024023016745AB89EFCD10B50346A6
:100A20000424FFF75BFF044603E0FFF757FF04468B
:100A30005B1E012C01D1002BF7D1002B00D1052426
:100A4000204610BDF0B50A4600210023002400BF57
:100A50003DE001258D402B4615681D402C469C42EB
:100A600034D11579012D02D01579022D16D1856862
:100A70004F000326BE40B543856055794E00B54012
:100A8000866835438560858801268E40B54385801C
:100A9000858896798E40B6B23543858005684F00CB
:100AA0000326BE40B543056015794E00B540066883
:100AB00035430560C5684F000326BE40B543C56099
:100AC000D5794E00B540C6683543C560491C10292C
:100AD000BFD3F0BDF0B5002300244D07EE0E154640
:100AE000B5402B46CD10AE0005462035AD594E071A
:100AF000F70E0F26BE40B543CE10B600074620378E
:100B0000BD51CD10AE003D46AD591D432C46CD1014
:100B1000AD003E467451F0BD01857047816170475C
:100B200000BFFEE71CB50121C80400F0A5F80320B2
:100B3000C0020090012168460171002181710321EA
:100B400041710121C17169460D48FFF77BFF012109
:100B5000080500F091F80420009001216846017119
:100B600000218171032141710121C171694605484C
:100B7000FFF768FF04210348FFF7CEFF1CBD00000C
:100B800000080048000C00487047000000218278EF
:100B9000002A27D0184A03231B02D21803789B107F
:100BA0009B00D15802789207D30EFF229A400B4641
:100BB0009343194642789207120E03789B07DB0E87
:100BC0009A4011430C4A03231B02D21803789B104E
:100BD0009B00D1500278D306DB0E01229A40064BCF
:100BE0001A6007E00278D306DB0E01229A40024B1E
:100BF00080331A607047000000E100E010B5002863
:100C000019DA1A4A03071B0F083B9B089B00D258AE
:100C10008307DC0EFF23A3409A438B071B0E840738
:100C2000E40EA3401A43114B0407240F083CA40808
:100C3000A4001A5118E00E4A03231B02D21883089D
:100C40009B00D2588307DC0EFF23A3409A438B07F7
:100C50001B0E8407E40EA3401A43054B0324240211
:100C60001B198408A4001A5110BD00001CED00E0FF
:100C700000E100E070470000002905D0054A5269F4
:100C80000243044B5A6104E0024A52698243014B19
:100C90005A61704700100240002905D0054AD26908
:100CA0000243044BDA6104E0024AD2698243014BF9
:100CB000DA61704700100240002905D0054A9269A8
:100CC0000243044B9A6104E0024A92698243014B59
:100CD0009A61704700100240FEB5044600250026C8
:100CE00000200290019000900027864840680C2167
:100CF00008400546002D06D0042D07D0082D08D049
:100D00000C2D2CD128E0804820602BE07E4820600C
:100D100028E07C4840680F2189040840064679484D
:100D200040680321C90308400290B00C861C029859
:100D3000002803D17548374647430BE07148C06A25
:100D40000007000F401C01906F480199FFF7EEF972
:100D500070430746276005E06D48206002E06A485E
:100D6000206000BF00BF67484068F021084005468A
:100D70002D096848405D009020680099C840606077
:100D80006048406807210902084005462D0A61486D
:100D9000405D009061680098C140A1605948006BB7
:100DA000FF2101310840884202D05B48E0600DE03D
:100DB00054484068012189030840884203D0A06854
:100DC0004008E06002E0A0688008E0604D48006BE9
:100DD00040210840402802D05048206102E0012014
:100DE000C00320614748006B10210840102802D042
:100DF0004548606101E0206860614248006B8007FF
:100E0000800F002802D1A068A06119E03D48006B66
:100E10008007800F012802D12068A06110E03948C6
:100E2000006B8007800F022802D18003A06107E0D9
:100E30003448006B8007800F032801D13248A0613D
:100E40003048006B032109040840002802D1A06843
:100E5000E06120E02B48006B0321090408400121D8
:100E60000904884202D12068E06114E02548006B43
:100E700003210904084001214904884202D180105D
:100E8000E06108E01F48006B032109040840884224
:100E900001D11D48E0611B48006B03218904084013
:100EA000002802D1A068206220E01648006B0321D0
:100EB0008904084001218904884202D12068206207
:100EC00014E01048006B0321890408400121C90483
:100ED000884202D10011206208E00A48006B032119
:100EE00089040840884201D1074820620548006B08
:100EF00080210840802802D00548606200E06762D7
:100F0000FEBD00000010024000127A0000093D0002
:100F1000006CDC0216010020809FD50012800000CA
:100F2000002904D0028840231A43028003E002888B
:100F3000014B1A4002807047BFFF000002460020AC
:100F400013890B40002B01D0012000E000207047E6
:100F500010B500220288C1239B011A400B88CC895E
:100F60002343CC8823430C8923434C8923438C8916
:100F700023431A4302808288084B1A408B881A4305
:100F800082800B8A03820288054B1A404B881A43E1
:100F90000280838B034C2340838310BDFFF000004D
:100FA000FBFF0000FFF70000014600220A460C325A
:100FB000107870478288034B1A40828082880A43E7
:100FC00082807047FFEF0000002202460C32117051
:100FD0007047704730B500228B071C0F0F23A340CA
:100FE0001A460B4B8C10A4001B599343084C8D10D0
:100FF000AD00635123468C10A4001B598C07250FAC
:101000000446AC402343024C8D10AD00635130BD0B
:101010000800014011201D4908601D4840681C4916
:101020004860084640684860084640687F21C90318
:10103000884317494860084640680521C9040843A9
:101040001349486008460068012109060843104911
:10105000086000BF0E4800680121490608400028CA
:10106000F8D00B484068800880000949486008466D
:101070004068022108430649486000BF04484068B0
:101080000C2108400828F9D17047000000200240D8
:1010900000100240042806D10649096904221143C0
:1010A000044A116105E00349096904229143014A98
:1010B0001161704700E000E007490988074A914242
:1010C00003D10021044A118004E003490888411C2F
:1010D000014A11807047000014010020FFFF00004A
:1010E00010B51B48006801210843194908600846EB
:1010F0004068184908401649486008460068164983
:1011000008401349086008460068012189048843A3
:101110000F490860084640683F21090488430C498C
:1011200048600846C06A00090001C8620846006BB2
:10113000FF2154318843064908630846406B400844
:101140004000486300208860FFF764FF10BD000086
:10115000001002400CB8FFF8FFFFF6FE10B58AB091
:101160006846FFF7B9FD13490098FEF7DFFF044614
:10117000214611A000F016FB0E490198FEF7D6FF9C
:101180000446214611A000F00DFB0A490198FEF724
:10119000CDFF044621460DA000F004FB054902984E
:1011A000FEF7C4FF044621460DA000F0FBFA0AB08A
:1011B00010BD000040420F00535953434C4B2020B8
:1011C00020203D2025644D487A0D0A0048434C4BB1
:1011D0002841484229203D2025644D487A0D0A00C7
:1011E00050434C4B2841504229203D2025644D4816
:1011F0007A0D0A0010B501210B4800F03AF80128D9
:101200000CD101F03DFD09490869804700210648DD
:1012100000F04EF86421044800F048F8012102482B
:1012200000F009F810BD00000020004088010020F7
:10123000CA4302827047CA4302827047002904D021
:10124000028801231A43028003E00288014B1A40FE
:1012500002807047FEFF00000146486A7047024660
:101260000020138A0B40002B01D0012000E0002059
:10127000704730B50246002000230024158A0D4037
:101280002B4695890D402C46002B03D0002C01D015
:10129000012000E0002030BD002A03D083890B43E9
:1012A000838102E083898B4383817047C1627047E9
:1012B0004162704700220288154B984206D00123F4
:1012C0009B07984202D0134B984203D1124B1A400D
:1012D0004B881A43114B984203D0114B1A400B898B
:1012E0001A4302804B68C3620B880385084B9842FF
:1012F00008D00C4B984205D00B4B984202D00B4BB8
:10130000984201D18B7A03860123838270470000C3
:10131000002C0140000400408FFF0000001000403E
:10132000FFFC000000400140004401400048014033
:101330007FB504460D4601210802FFF7ADFC02947B
:101340006846858000218181C18001A90A48FFF794
:10135000B1FF012241210848FFF79EFF1321684693
:1013600001700221417001218170FFF70FFC012102
:101370000148FFF763FF7FBD0020004010B56349BF
:10138000634800F041F9002824D0614800F000FAD9
:10139000C4B26048008880085F490C540846007851
:1013A000FB287CD15B4800888008002813D159486D
:1013B00000885A490840FB2C01D0002103E0554920
:1013C00009888908491C8900544AD24311400843BE
:1013D0005049088099E04F4800888008012813D1BF
:1013E0004C4800884D490840FB2C01D0002103E007
:1013F000484909888908491C8900484AD243114054
:1014000008434449088080E0424800888008022858
:101410000FD140480088414908403E490988890861
:10142000491C89003D4AD24311400843394908808C
:101430006BE0384800888008022866DD354800885F
:1014400036490840334909888908491C8900334ACC
:10145000D243114008432F4908800846008881087C
:101460002D488078401D814207D12A4800884008D5
:101470004000401C2749088047E026480088800833
:101480003F2842DD2348008824490840214908803C
:101490000846008840084000088036E0FFE7204802
:1014A00000880121C903084000282ED11C4800886B
:1014B0004910084000280DD00A2C03D000201849FC
:1014C000088022E0164800880121C9030843144916
:1014D00008801AE00D2C07D11148008801218903EA
:1014E00008430F49088010E00D4800888004800CF4
:1014F0000C490C540A480088401C094908800846D9
:1015000000887F2801DD0020088010BD050105004E
:101510000038014010010020600300200300FFFF9D
:10152000000000208002002001627047002904D0E2
:10153000026801231A43026003E002685208520065
:101540000260704700B589B001214804FFF794FBA1
:1015500001218803FFF7B0FB01220921C806FFF72C
:10156000B9FA01220A210920C006FFF7B3FA0120C7
:10157000400201900221684601720121417200215E
:1015800081720121C17201A90920C006FFF75AFA30
:1015900001208002019001A90920C006FFF752FA3C
:1015A000E1204002039000200490059006900890EE
:1015B0000C20079003A90D4800F06EF80C490B4869
:1015C000FFF7B2FF01220A49084800F044F8012160
:1015D0000648FFF7ABFF1B216846017001214170EF
:1015E0008170FFF7D3FA09B000BD00000038014058
:1015F0000501050002460020D3690B40002B01D0F5
:10160000012000E00020704770B502460B46002420
:101610000021002500201E04350ED9B201268E407F
:101620003146012D02D11668314006E0022D02D16B
:101630005668314001E0966831401C0C0126A640F6
:101640003446D6693440002903D0002C01D0012053
:1016500000E0002070BDF8B5034600240026009687
:101660000025002018460E04340ECEB20096012745
:10167000009EB7403D46022C01D1001D02E0032C24
:1016800000D10830002A03D006682E43066002E02D
:101690000668AE430660F8BDF0B58BB004460D4653
:1016A000002700200A9000262068400840002060A3
:1016B000666803210903304688430646A868064346
:1016C000666026682D480640E9686868084329690D
:1016D000084306432660A668032109023046884372
:1016E000064668690643A6606846FFF7F5FA24488F
:1016F000844202D106980A900DE02248844202D129
:1017000007980A9007E02048844202D108980A907E
:1017100001E002980A9020680121C90308400028CE
:101720000CD029680A9A5000FEF700FD0746296888
:101730000A9A5000FEF7FAFC0E4609E029680A985A
:10174000FEF7F4FC074629680A98FEF7EFFC0E4600
:1017500028684008B04200D87F1C20680121C903D6
:101760000840002806D03807460F38460749084089
:1017700030430746A7810BB0F0BD0000F3E9FFFF3F
:10178000003801400044004000480040F0FF0000E5
:101790000146888CC005C00D7047CA05D20D028570
:1017A000704700000FB410B503A9044B044A029817
:1017B00000F0BCF910BC08BC04B018475D2C000850
:1017C0007C0200202021020C01D010211046020AC8
:1017D00001D010460839020901D01046091F8208BD
:1017E00001D01046891E420801D0881E7047081A91
:1017F000704730B47446641E2578641CAB4204D331
:10180000635D5B00E31830BC18471D46F8E702E053
:1018100008C8121F08C1002AFAD17047704700207B
:1018200001E001C1121F002AFBD1704710B5002250
:1018300002212C2001F09BF9022211462C2001F0FC
:1018400096F910BD10B504466D2209492E2001F00D
:101850008EF9002C05D0074A07492E2001F065F9C2
:1018600004E0064A04492E2001F05FF910BD000093
:101870000608000007060000061800000716000012
:1018800010B5002000F006F800220421362001F0F7
:101890004CF910BD38B504466B46022200213620B3
:1018A00000F082FF2300FFF7A4FF0F12091B5B5B10
:1018B0005B5B24325B5B3E454C555B000021684618
:1018C00001704078FE2108406946487049E0694649
:1018D0000878FC210840012108436946087040E06F
:1018E00069460878FC2108400221084369460870CF
:1018F00037E068460078B321084048210143684634
:1019000001704078802108436946487029E06846A4
:101910000178B32001406846017040784106490EC5
:10192000684641701DE069464878022108436946CF
:10193000487016E069464878FD21084069464870BD
:101940000FE069460878CF21084020210843694606
:10195000087006E00121684601700321417000E033
:1019600000BF00BF6B4601220021362001F009F9BB
:1019700000AB013301221146362001F002F938BDD7
:1019800010B50E20FFF786FF0122D20306212D207D
:1019900001F0CBF8012000F065FC0120FFF77AFF91
:1019A00010BD70B50446A2B204212D2001F0BDF88F
:1019B000032206212D2001F0DAF8002206212D2035
:1019C00001F0D5F80A212D2000F0C7FE0546284673
:1019D00070BD0000F0B51FB484B007980699020DE1
:1019E000014314D04A484B491018484305140F9836
:1019F00001280E981CD0281A401C0024464E474946
:101A0000009401910290002814DA474227E00F98D1
:101A1000012443A3012808D0002104980F9A846070
:101A20000360C260416009B0F0BD0E98C143F4E7A5
:101A30004042E2E7074612E0F80707D02246334665
:101A400001990098FEF75AFC019100902246334616
:101A500010461946FEF752FC04460E467F10002F32
:101A6000EAD10298019B0028009A0799069802DAA9
:101A7000FEF744FC01E0FEF7A9FC04460E460022F6
:101A8000284BFEF721FE03D80020C043014607E0A3
:101A90000022254B20463146FEF77EFBFEF71CFD5B
:101AA000102409E0002C0ADB0A220023FEF748FD7F
:101AB000059B30321A55641E02460A43F2D11122A8
:101AC000641C059B121B1C190F9B012B03D00123C7
:101AD00008430ED10AE0084304D011200E900020E4
:101AE0000F9084E70E98151A6D1E0BE00E98824237
:101AF00002DD00236D1C03E0824201DA00236D1E2B
:101B0000002BEED004980F998260C16030C08AE744
:101B100001FCFFFF104D0000000024400000F03FDA
:101B2000300000000000F0430000E03FFFB597B038
:101B30000646002518E2252877D100242746FD49CE
:101B4000049400E00443761C32780120203A90404F
:101B50000842F7D130782A280ED002223078014688
:101B60003039092916D804990A23594330394018C5
:101B70001443761C0490F1E7189802C80491189059
:101B8000002904DA01204003044348420490022063
:101B90000443761C30782E2814D104200443707836
:101BA000761C2A2809D11898761C80C8189009E05C
:101BB0000A214F43303FC719761C3078014630392F
:101BC0000929F5D930786C2810D006DC4C281AD0B9
:101BD00068280ED06A2817D104E0742813D07A2818
:101BE00012D110E00120400504430CE00121090559
:101BF00001E0032109050C437178814203D10120E2
:101C000000052418761C761C3078119066280BD0BD
:101C100013DC58287DD009DC00287BD04528F6D07D
:101C20004628F4D047281AD1A5E118E0632835D01A
:101C3000642870D0652812D19DE170286CD008DC32
:101C40006728F1D069287BD06E280DD06F2806D187
:101C5000BAE073282ED0752871D0782859D01A9AF6
:101C6000199990476D1C7EE16002400F022809D04F
:101C700003280DD00428189801680DD00D60001DB0
:101C8000189070E11898EA1701680D604A60F6E74D
:101C9000189801680D80F2E70D70F0E718986A4611
:101CA00001781172001D18900020507202A8009057
:101CB000012005E0189802C8189000200091C04348
:101CC00061070DD5002101E00199491C0191B9423C
:101CD00012DA8142F8DB009A515C0029F4D10BE062
:101CE000002101E00199491C01918142FADB019A2E
:101CF0000099895C0029F5D1019904981A9B471A2B
:101D000021463846199A00F097FA0199401945186A
:101D10000BE04FE02CE113E04EE0009800990078D2
:101D2000491C00911A9A199990470198401E0190F8
:101D3000401CF2D1214638461A9B199A10E137E02F
:101D40000A200021009001916002410F022907D072
:101D5000189A01CA1892C2179446032908D00AE0BB
:101D60001898C01DC108C90005C91891944607E01C
:101D700000B2C2179446042902D140B2C1178C4662
:101D800000226146944506DA0A460021404291410C
:101D90008C462D2102E0210504D52B216A461173C2
:101DA000012103E0E10701D02021F7E7029155E08E
:101DB0000A200AE0102008E01020009000210420F2
:101DC00004430191082703E00820002101910090BD
:101DD0006002410F022907D0189A01CA1892002206
:101DE0009446032908D008E01898C01DC108C9000E
:101DF00005C91891944603E080B2042900D1C0B20D
:101E000000210291210729D51199702906D0009A45
:101E10001021019B4A401A4305D00EE040216A463A
:101E20001173012108E06146014306D030216A4662
:101E300011731199517302210291009A0821019B9B
:101E40004A401A430AD16146014301D1610705D5D1
:101E500030216A46117301217F1E02911199582980
:101E600004D035A10E910DA90D910DE037A1F9E730
:101E70006146019B009AFEF763FB0E9B8C469B5CC0
:101E80000D9A521E0D92137061460143F0D10D98C8
:101E900005A9081A20300190600703D5012000042D
:101EA000844300E001270198874201DD381A00E0F1
:101EB0000020019900904118029809180498401ACE
:101EC0000490E00306D421461A9B199A049800F066
:101ED000B3F94519002706E003A81A9AC05D1999BD
:101EE00090476D1C7F1C02988742F5DBE0030CD500
:101EF00021461A9B199A049800F09EF9451904E0AE
:101F00001A9A3020199990476D1C0099481E00902C
:101F10000029F5DC08E00D980D990078491C0D9119
:101F20001A9A199990476D1C0199481E0190002931
:101F3000F1DC63E1092801003031323334353637C2
:101F40003839616263646566000000003031323305
:101F500034353637383941424344454600000000A5
:101F600000F05AF94519761C3078002800D0E2E5D7
:101F700028461BB0F0BD600700D406271898C01D86
:101F8000C108C90048680A680831C30FDB07189107
:101F9000190001D09CA108E0210501D59BA104E016
:101FA000E10701D09AA100E09AA1430011985B08D3
:101FB000109165280CD006DC452809D046281DD094
:101FC000472841D141E0662818D067283CD13CE041
:101FD0000021112F01DB112000E0781C01910090FD
:101FE00008A911A8FFF7F6FC139905910021119A91
:101FF00015927F1C12980197009150E00120C007B4
:1020000003900120019008A9009711A8FFF7E2FCB6
:10201000139A149905920022119B0092129815931D
:10202000059A0192002901D0104602E0791C40185F
:102030000190381A01D5019804E04042401E0090FA
:10204000781C0190C01B029043E0012F00DA0127A9
:102050000021112F01DD112000E038460191009090
:1020600008A911A8FFF7B6FC13990591119A002150
:10207000129815920091019721070CD40599B94245
:1020800001DB019900E00191012904DD159A491E47
:10209000515C302906D0B84201DA011D05DA012170
:1020A000029115E00199491EEDE7002805DC009931
:1020B000411800910199091A03E0019A411C9142CB
:1020C00000DD01910099401A401C02900120C007D8
:1020D0000390200706D402990198814202DB002078
:1020E000C043029000206946C87707AF01210398DA
:1020F0000337C907884224D0022011902B20129068
:10210000039800280CDA404203902D20129007E03B
:102110000A210398FEF70AF830317F1E03903970C8
:102120001199481E11900029F2DC03980028EFD184
:10213000791E129808703078202108404530BF1E63
:10214000387006A8C01BC01D0390109800780028A6
:1021500000D00120019941180298C017091803986E
:1021600009180498401A401E0490E00306D4214642
:102170001A9B199A049800F05FF845191098007896
:10218000002803D01A9A199990476D1CE00324D5B2
:1021900021461A9B199A049800F04EF845191CE044
:1021A0000098002807DB00990598884203DD159800
:1021B000405C199901E0199930201A9A90470098CB
:1021C0006D1C401C00900298401E0290002804D113
:1021D0001A9A2E20199990476D1C0199481E01905A
:1021E0000029DDDC05E038781A9A7F1C19999047A0
:1021F0006D1C0399481E03900029F4DC21461A9BAC
:10220000199A0498ACE600002D0000002B00000095
:102210002000000000000000F8B5044600251E461E
:102220001746880404D405E039462020B0476D1CC9
:10223000641EF9D52846F8BDFFB50446002581B0D7
:102240001E46C80301D5302700E02027880404D5A6
:1022500005E038460399B0476D1C641EF9D5284641
:1022600005B0F0BD10B504462046FEF77FFA10BD5C
:1022700010B50446002C0BD0064800680321C902A3
:10228000084004490860012211460348FFF704F89A
:1022900010BD0000000401400020004070B5002582
:1022A00000260E480068012109030840491046181D
:1022B000002E01D0012500E000252C46002C0AD07C
:1022C00006480068064908430449086000220121C5
:1022D0000448FEF7E1FF204670BD00000004014005
:1022E000FFEFFFFF0020004010B57D21890110485D
:1022F0000068FDF71BFF0446601E0E49884201D9A5
:1023000001200CE0601E0C4948610021481EFEF7C8
:1023100075FC00200849886107200861002000281A
:1023200001D000BFFEE70420C043FEF7B3FE10BD9E
:1023300028010020FFFFFF0000E000E000B585B0AD
:1023400001210846FEF7B8FC01214804FEF794FC81
:102350000120000303900021684601740221C1742A
:1023600003A90920C006FEF76DFB0C210020FEF733
:1023700031FE01200003019000216846017208210E
:1023800041720121817201A8FEF764FA07216846B3
:1023900001700321417001218170FEF7F7FB05B048
:1023A00000BD0000FEB504462578607940007E49F6
:1023B000085A01906078401EC6B2042D01D0072D46
:1023C00001D1012000E000200090E07900280AD12E
:1023D000764840690121890508437449486101989C
:1023E000C010019006E071484069012189058843C9
:1023F0006E494861207A6D49087208464069032198
:10240000090488436949486108464069217A0904FA
:102410000322120411400843644948610846002120
:102420004269042000F090FB61492E20019A00F0DF
:102430007CFB3046FFF706FA5E48405D80005E494F
:102440000A5807212B2000F07FFB5A48405D5B496A
:102450000A5C0B212B2000F08AFB594900980A5C8A
:102460000B21282000F083FB5248405D8000554935
:102470000A580C21282000F067FBE07980005249BF
:102480004018A1794900425A0221272000F04DFB53
:1024900070004E490A5A0421272000F046FBE079DB
:1024A000002805D164220621272000F03EFB17E01A
:1024B000A07804280AD110220621272000F035FB3D
:1024C00010222621272000F052FB09E020220621BD
:1024D000272000F02AFB28222621272000F047FB96
:1024E00030013B494018E1788900425808212720F3
:1024F00000F02AFB6089002801D13648608162899A
:102500002021272000F011FB33480C2102682320F2
:1025100000F01AFB71003048001D425A04212320AC
:1025200000F003FBA079002806D0E0792B490A5C73
:102530000021212000F01BFB2807000F2901F022B9
:102540001140084361788904032292041140084332
:10255000A1794904012252041140084321798905D7
:102560001F229205114008436179C906C90EC906A8
:10257000084307463A4600211F2000F0E5FAA078FC
:10258000617808430004E179490308430749C860BA
:1025900008460021C268082000F0D6FA4222002135
:1025A0000D2000F0E4FAFEBDC84B0008B003002087
:1025B000042800004C4B00086C4B0008844B0008BA
:1025C0008A4B0008544B0008984B0008A44B0008A5
:1025D000A84B0008411000008C4B0008944B0008E9
:1025E00070B500210E2000F0B8F80546FFF756FE42
:1025F0000446002211460E2000F0A6FA40220021D7
:102600000D2000F0B4FA094A00210F2000F09CFAD6
:1026100000F078FA2A4600210E2000F095FA2046B4
:10262000FFF726FE00200249887670BDF8FF2724B8
:10263000B0030020F8B504460025002700203A49E1
:102640004874887608838862C8620863486300F02B
:10265000A5F83649884201D08817F8BD00F0F0F996
:102660000020FFF717F904220021242000F07FFA50
:102670001E20FFF796F985B228122B4948720420D4
:10268000FFF78FF90746F8B200280BD0022212217B
:102690002D2000F06CFA2448008B01210903084327
:1026A000214908830620FFF77CF91F4908600720AD
:1026B000FFF777F91C494860E806C00E0874084621
:1026C000007C002801D1102008741749087C00F014
:1026D000A9F9E007C00F002809D0FFF751F9124807
:1026E000008B0121C90208430F4908830CE0052132
:1026F000362000F01FF806460D48064032460521F8
:10270000362000F012FA00BF0120FFF7C3F80022C4
:102710000A212C2000F02BFA0021042000F01DF8E3
:1027200001494861002098E7B00300203001CADE6B
:10273000FFFD0000F8B504460D460026A9B2A0B280
:102740006B46022200F030F8684640780102684685
:102750000078081886B23046F8BDF8B505460E4632
:102760000027B1B2A8B26B46042200F01DF8032482
:1027700004E038026946095D4718641E002CF8DA47
:102780003846F8BD38B504460D46A9B2A0B26B462E
:10279000012200F009F86846007838BD10B5002124
:1027A0000846FFF7DAFF10BDFFB581B006460C46BC
:1027B00017460025002C04D129466D1C6846465456
:1027C0001AE040203043C2B229466D1C684642548C
:1027D0007F2C04DC28466D1C69460C540CE0E0B2EA
:1027E0008021084329466D1C6A4650546004020E3D
:1027F00028466D1C69460A54A8B23A466946049BAD
:1028000000F062FE05B0F0BD70B504460D461646F8
:1028100023462A4631461120FFF7C6FF70BD10B58A
:1028200004462346052200211520FFF7BDFF10BDF9
:1028300010B504462346052200211720FFF7B4FFF8
:1028400010BD70B5044604202040002801D100F0DE
:1028500059F9FF250135E007C00F002801D06800B5
:1028600005432A4600210D2000F05FF9E007C00F64
:10287000002817D003210F20FFF784FF0646082009
:10288000304000280ED0FFF7ABFE02202040002889
:1028900005D1FF22013200210D2000F046F9002071
:1028A000C04370BD0020FCE710B5E02203213620B4
:1028B00000F05DF9F0220321362000F058F910BD38
:1028C000F8B504460E46FFF7E9FC074600210E2046
:1028D000FFF743FF0546002E03D028462043054658
:1028E00002E02846A04305462A4600210E2000F0BB
:1028F0002BF93846FFF7BCFCF8BD70B50546E80774
:10290000C00F00283BD000212620FFF726FF0446F9
:102910000F21890220468843044605208002044393
:1029200022460021262000F00FF900213620FFF773
:1029300014FF04462120800404432246002136204F
:1029400000F002F9FF24113402202840002802D0B0
:102950000F200004044322462821362000F0F4F81A
:1029600002202840002819D00F210904204688435E
:10297000044622462821362000F0E6F80EE0002129
:102980002620FFF7EAFE04460F21890220468843ED
:10299000044622460021262000F0D6F870BD000033
:1029A00010B50446224602492E2000F0BEF810BDA4
:1029B0000418000070B5044603210420FFF7E2FE6E
:1029C0000546002C13DD224600210C2000F0ADF856
:1029D000102005430E4840690121090708430C49AE
:1029E00048612A460321042000F0C1F80EE01021BE
:1029F0002846884305460648406909068843044935
:102A000048612A460321042000F0B1F870BD00009F
:102A1000B003002010B5044622460021182000F023
:102A200084F810BD70B50446E006C00E602108436E
:102A300005462A460E212B2000F099F870BD0000B3
:102A400010B5FEF71DFF002211462C2000F06DF896
:102A5000002206212C2000F08AF8FEF7E7FE002273
:102A60000321362000F083F80120FFF7FBFBF02262
:102A70000321362000F07BF800200149887610BD44
:102A8000B0030020F8B504460026002500270220E8
:102A90002040002808D080252A4600210D2000F083
:102AA00066F8012016498876E007C00F00281DD07F
:102AB000062005432A4600210D2000F058F8032186
:102AC0000F20FFF737FE07468120C000384000285E
:102AD00001D1002611E040252A4600210D2000F0FA
:102AE00046F8002006498876461E06E00220054387
:102AF0002A4600210D2000F03AF83046F8BD0000CB
:102B0000B003002010B503210F20FFF73BFE044661
:102B100080202040402121404900884204D00122E9
:102B200003210D2000F023F810BDF8B505460E4630
:102B300014466846047021124170B1B2A8B26B46C7
:102B4000022200F01EF8F8BDF8B506460F461446FE
:102B5000002503E069464C55240A6D1C042DF9DB61
:102B6000B9B2B0B26B46042200F00BF8F8BD37B52D
:102B700004460D46A9B2A0B202AB012200F001F852
:102B80003EBDFFB581B006460C4617460025002C19
:102B900007D180203043C2B228466D1C69460A54D2
:102BA00019E0C0203043C2B228466D1C69460A5461
:102BB0007F2C03DC28466D1C0C540CE0E0B2802115
:102BC000084329466D1C6A4650546004020E28468C
:102BD0006D1C69460A54A8B23A466946049B01F046
:102BE00071FF05B0F0BD70B504460E4615462819B4
:102BF00001218902884207DCA21E334629460920AA
:102C0000FFF7BFFF002070BD0020C043FBE70000BE
:102C1000F8B504460D4616460648C0682043A90587
:102C20000843F103084307463A4600210820FFF70E
:102C30008BFFF8BDB0030020F0B503460025284601
:102C40002946032207E0060E0C0234430002214607
:102C50009C5C2043521E002AF5DAF0BD70B5044694
:102C60000D4600BF40210548FEF7C4FC0028F9D0FE
:102C7000E1B20248FEF791FD204670BD00380140E8
:102C800070B519480078C007C00F00282BD016482F
:102C900000888005040E002014490855084645792F
:102CA000E81E0300FEF7A5FD0504070A0D1013003A
:102CB00000F0E4FC0BE000F013FB08E000F028FD5E
:102CC00005E000F05BFB02E000F0A4FB00BF00BFEA
:102CD00005480088064908400349088008460088DE
:102CE00040084000088070BD1001002060030020F3
:102CF0000300FFFF7CB50446002001900125042657
:102D00006B46324601A9284600F0DEFB6846015DAD
:102D100001A0FEF747FD7CBD25640D0A0000000000
:102D2000FEB5044608A000680290012505266B4602
:102D3000324602A9284600F0C7FB6846015D03A0A1
:102D4000FEF730FDFEBD00000F00000025640D0AF7
:102D5000000000007CB500210C460D466846FFF7D8
:102D60005EFD042608E0220E2802104324020546D8
:102D70006846805D0443761E002EF4DA204629461C
:102D80007CBD7CB500210C460D466846FFF750FD22
:102D9000042608E0220E2802104324020546684655
:102DA000805D0443761E002EF4DA204629467CBD61
:102DB00090B0FEF795F9FDF7B5FEFFF795FAFEF72F
:102DC000C1FBF748416830208847FDF715FEFDF745
:102DD000FFFDBB20FDF7B4FD042803D1F1A0FEF7F1
:102DE000E1FC02E0F2A0FEF7DDFCFDF79FFDFDF740
:102DF00093FDF2A0FEF7D6FC00F0D4FCF6A0FEF79F
:102E0000D1FC00F0A7FBF8A0FEF7CCFC0120FFF7F7
:102E100011FC401C002804D1F7A0FEF7C3FC00BF42
:102E2000FEE7FFF78BFAF848FFF7BCFAF7A0FEF7CA
:102E3000B9FC0120FFF761FDF848FFF7B1FDF74845
:102E4000FFF7E8FD0121F648FFF73AFD41E2FFF701
:102E50002BFD0020FFF7AEFD0020FFF7F2FC00BFC6
:102E6000F04800780028FBD00020EE490870EE48BA
:102E7000007800287DD00020EB4908700021102048
:102E8000FFF76BFC4406640E01208002844204D8E4
:102E9000A1B20022E548FFF7B7FC0522E449E34868
:102EA000FDF76CF900287DD1E249E048C088088030
:102EB0000120E1490870DD484079E0490870FFF7DA
:102EC00049FFDF4A03C20A20FDF750FC0022DD491A
:102ED0000C20FFF788FE002211460C20FFF798FE19
:102EE000D948FFF767FD0220FFF7CCFD0020D74946
:102EF0000870DEE100BFCB4800780028FBD000203E
:102F0000C8490870C848007800287DD00020C6490C
:102F10000870802200210F20FFF716FE00211020EC
:102F2000FFF71BFC4406640E3C2C04D8A1B200221F
:102F3000BE48FFF769FC0522C549BC48FDF71EF9EC
:102F400000287DD100BF00BF00BF00BF00BFFFF75A
:102F500018FFC04A03C2FFF7FDFEBF4A03C20021AB
:102F6000BE4A116051600020BD4A106050600027C9
:102F700022E0A5E13946062251430C31AB4A8818BC
:102F80000222B0490831FDF7F9F8002812D1A7480C
:102F90000830FFF751FEB14A03C2394606225143B9
:102FA0000E3100E08BE1A14A8818FFF745FEAC4ADC
:102FB00003C203E0781CC7B2032FDBDB00BFA248CB
:102FC000FFF7F8FC0020FFF73CFC00BF95480078B5
:102FD0000028FBD00020934908709348007800280F
:102FE0007ED000209049087000211020FFF7B5FB2B
:102FF0004406640E3C2C04D8A1B200228B48FFF793
:1030000003FC0522974900E048E18848FDF7B6F83F
:10301000002865D1944A1060506084480830FFF75A
:103020000BFE914A03C283498048C08808807F48CC
:103030004079824908708A4803684068874A00E0FE
:1030400020E106CA591A904106910790084607994F
:10305000FDF734FA05460E467F48036840687D4A0E
:1030600006CA591A90410691079008460799FDF73C
:1030700025FA0F910E907C4803684068784A06CA8A
:10308000591A90410691079008460799FDF716FADC
:103090000D910C906F4803684068694A06CA591A36
:1030A00090410691079008460799FDF707FA0B91A2
:1030B0000A90284631460F9B0E9AFDF76DF8019154
:1030C00000900D9B0C9AFDF767F8039102900B9B03
:1030D0000A9AFDF761F8079106900B9B0A9A00E0A7
:1030E0005DE00D990C98FDF709F9039102902846CF
:1030F00031460F9B0E9AFDF701F901910090039B59
:10310000029AFDF7EDF805910490079B069AFDF7EA
:103110005DF909910890554A554B09990898FDF7B2
:10312000EDF8544A03C213221206534B514903C906
:10313000FDF7E4F8514A03C2002213464F4903C980
:10314000FDF7EAF906D24D4903C90122D2075140E1
:103150004A4A03C200BF00BF00BF49483949098934
:103160000181082245490A30FCF7F6FF0120FDF7EE
:10317000FDFA002242491420FFF735FD00221146D6
:103180001420FFF745FD0020FFF77CFC00BF002165
:103190000F20FFF7E2FA802108400028F7D08DE0E9
:1031A000880100207365742072696768740D0A00D5
:1031B000736574206661756C740D0A0064656C61DA
:1031C00079696E69745F4F4B2C7573617274696EA7
:1031D00069745F4F4B0D0A00737069696E69745FA3
:1031E0004F4B0D0A00000000647772657365745FD1
:1031F0004F4B0D0A00000000494E495420464149FA
:103200004C45440D0A000000080000206477636FFD
:103210006E6669675F4F4B0D0A0000006F4000004B
:1032200000D02304E8000020E90000200003002073
:1032300014000020F0000020F8000020F200002020
:10324000B80000201E00002060EA0000EA00002014
:103250002A000020C0000020C8000020D00000206C
:10326000E00000204A000020D8000020FA48CE3BB1
:103270001835B13D0001002019DDB14108010020E1
:103280005800002013480078002800DD16E012489E
:10329000FFF790FB0020FFF7D4FA0AE00D48007812
:1032A000002800DD0AE00C48FFF784FB0020FFF750
:1032B000C8FA08480078002800D11BE600BF00BF0C
:1032C00006480078002804D000200449087000F067
:1032D0006BF9BCE5EA00002060EA0000F80000207D
:1032E000F8B5062700242248007A2249C8702048F1
:1032F000407A087100208871C871087248728E1C6B
:1033000016E0802511E040202040002804D060060F
:10331000040E0920444001E06006040E3078284085
:10332000002801D0092044406D10002DEBD1761CFF
:103330003846791ECFB20028E3D16406640E6400DB
:10334000012004430B48847200250DE000BF40219A
:103350000948FEF74FF90028F9D00648415D0648B4
:10336000FEF71BFA681CC5B20B2DEFDBF8BD0000A1
:103370001E0000208800002000380140F8B5042716
:1033800000242148007A2149C8701F48407A0871FA
:1033900000208871C8718E1C16E0802511E0402045
:1033A0002040002804D06006040E0920444001E0BB
:1033B0006006040E30782840002801D009204440DF
:1033C0006D10002DEBD1761C3846791ECFB2002847
:1033D000E3D16406640E6400012004430B480472C8
:1033E00000250DE000BF40210948FEF703F9002841
:1033F000F9D00648415D0648FEF7CFF9681CC5B212
:10340000092DEFDBF8BD00001E0000209B0000200E
:1034100000380140F8B5042700242148007A2149EA
:10342000C8701F48407A087100208871C8718E1CCE
:1034300016E0802511E040202040002804D06006DE
:10344000040E0920444001E06006040E3078284054
:10345000002801D0092044406D10002DEBD1761CCE
:103460003846791ECFB20028E3D16406640E6400AA
:10347000012004430B48047200250DE000BF4021E9
:103480000948FEF7B7F80028F9D00648415D06481C
:10349000FEF783F9681CC5B2092DEFDBF8BD00000B
:1034A0001E000020A40000200038014070B5054631
:1034B000FFF774F90446214601A0FEF773F970BDC9
:1034C000256C780D0A000000FFB581B006460F4656
:1034D0001D460024FEF7E2FE0090012109031B486F
:1034E000FDF71AFB00BF0FE0395D1948FDF76CFDD1
:1034F00000BF01211648FDF721FD0028F9D014482E
:10350000FDF752FD2870641CB442EDDB00240FE08F
:1035100000210F48FDF758FD00BF01210C48FDF7C1
:103520000DFD0028F9D00A48FDF73EFD2855641C22
:1035300003988442ECD30098FEF79AFE0121090318
:103540000248FDF7EBFA002005B0F0BD000400488A
:10355000003800401CB5022000900121684601712E
:1035600003214171002181710221C17169460D4819
:10357000FDF768FA02210B48FDF7CEFA0120FDF7AE
:10358000F5F8022000900021684601710321417185
:103590000021C17169460348FDF754FA0520FDF783
:1035A000E5F81CBD00080048F8B5112700242E4896
:1035B000007A2E49C8702C48407A08712C4800784F
:1035C00088712B484078C8712A480078C007C00F1E
:1035D000002805D00846007A0121084323490872D3
:1035E0000020224948728872C87208734873887331
:1035F000C8730874487488748E1C16E0802511E026
:1036000040202040002804D06006040E09204440D9
:1036100001E06006040E30782840002801D009201F
:1036200044406D10002DEBD1761C3846791ECFB288
:103630000028E3D16406640E6400012004430B48B3
:10364000C47400250DE000BF40210B48FDF7D2FFF8
:103650000028F9D00548415D0748FEF79EF8681C30
:10366000C5B2142DEFDBF8BD1E0000206C00002059
:10367000F0000020F200002000380140F8B50327D8
:1036800000242048007A2049C8701E48407A0871FA
:10369000002088718E1C16E0802511E0402020401B
:1036A000002804D06006040E0920444001E06006B2
:1036B000040E30782840002801D0092044406D10C5
:1036C000002DEBD1761C3846791ECFB20028E3D10D
:1036D0006406640E6400012004430B48C471002595
:1036E0000DE000BF40210948FDF784FF0028F9D014
:1036F0000548415D0548FEF750F8681CC5B2082D25
:10370000EFDBF8BD1E0000208000002000380140E3
:10371000F8B5032700242048007A2049C8701E48C5
:10372000407A0871002088718E1C16E0802511E017
:1037300040202040002804D06006040E09204440A8
:1037400001E06006040E30782840002801D00920EE
:1037500044406D10002DEBD1761C3846791ECFB257
:103760000028E3D16406640E6400012004430B4882
:10377000C47100250DE000BF40210948FDF73AFF64
:103780000028F9D00548415D0548FEF706F8681C99
:10379000C5B2082DEFDBF8BD1E000020930000200D
:1037A0000038014000B587B001218804FDF764FAB4
:1037B00001218803FDF770FA00220D212A48FDF748
:1037C00089F900220E212848FDF784F900220F21F3
:1037D0002548FDF77FF90720400300900221684645
:1037E000017103214171002181710121C17169467B
:1037F0001D48FDF727F9002168460181FF210531A9
:1038000041810721090281810021C18101820121B9
:1038100049024182382181820021C182072101832E
:1038200002A91248FDF794FB012109030F48FDF797
:10383000C1FB01210D48FDF773FB0120000300903F
:10384000012168460171032141710021817102212A
:10385000C17169460448FDF7F5F8012109030248E2
:10386000FDF75CF907B000BD0004004800380040D7
:1038700010B5044616480078002825DD1548844216
:1038800017D1FDF7B9F8FDF7A3F813A0FDF78AFFEC
:10389000AA20FDF755F8042803D11EA0FDF782FFEA
:1038A00002E01FA0FDF77EFFFDF740F8FDF734F8BA
:1038B0000DE007480078401E054908700846017869
:1038C0001AA0FDF76FFF02E021A0FDF76BFF10BD0E
:1038D00012010020C95C8F01436869702077696C10
:1038E0006C20756E6C6F636B20616E6420666C611A
:1038F00073682077696C6C206265206572617365FE
:10390000642061667465722072657365742E200D83
:103910000A0000007365742072696768740D0A00FC
:10392000736574206661756C740D0A004572726F60
:10393000722070617373776F726421202564207424
:10394000696D6573206C656674210D0A00000000C6
:1039500043484950204C4F434B454421212100000E
:1039600030B595B0054613AB12AA09A9284600F058
:1039700055FA0446002C02D0204615B030BD002078
:10398000149027E02249096810AA127CD2008918F5
:1039900013AB11AA486801A900F040FA0446002CB4
:1039A00001D02046E9E709A901A800F0E6FC0028BB
:1039B0000BD110A80179007A814201DD0220DCE7F9
:1039C00010A8007C124988750AE010A8007C401CF1
:1039D000C1B214910E48007D10A9097C8842D1DC47
:1039E00000BF0B48007D10A9097C884201D104204A
:1039F000C3E714A9284600F0FDFA0446002C01D0C4
:103A00002046BAE710A8007C014948750020B4E7B9
:103A100088010020F0B59DB0A648847D007DA042BD
:103A200001DC1DB0F0BDA3490968E200891809ABAB
:103A30000AAA48680BA900F0F1F90BA99EA0FDF7AE
:103A4000B1FE002645E09B48008B0121B1400840B3
:103A500000281BD022219AA0FDF7A4FE304600F0DA
:103A600051FB944924314718394696A0FDF79AFE38
:103A7000222193A0FDF796FE304600F043FB8D49CE
:103A800024314018B10013AA505018E0304600F01D
:103A900039FB884924310858B10013AA5050854891
:103AA000C07D002805D1B000115887A0FDF77AFE2F
:103AB00005E0B00013AA115884A0FDF773FE08A812
:103AC000007A401EB04202D082A0FDF76BFE701C4F
:103AD000C6B208A8007A8642B5DB7FA0FDF762FE79
:103AE00000F05EFB7348407D0300FDF782FE0B078C
:103AF0000E161F2A3746586C8299B1006D49096825
:103B0000E200885880470546A2E06A4A1268E3004E
:103B1000D1581398884705469AE0664B1B68E70022
:103B2000DA59149913989047054691E0614909685C
:103B3000E700CB59159A14990891139898470546B0
:103B400086E05C490968E700C959079114A90EC9C4
:103B50000891079F1398B847054679E01798554B89
:103B600000901B68E700DB590793169B0893079F9B
:103B700013A807C8B84705466AE0189917984D4A30
:103B8000019100901268E300D758169A0892159A8E
:103B90000792089B14991398B847054658E0189A5D
:103BA00019991798019202910090424A1268E70011
:103BB000D2590792169B159A0892079F1499139849
:103BC000B847054644E0189B179A19991A9801932B
:103BD000009202910390374A1268E700D259079287
:103BE000169B159A0892079F14991398B847054693
:103BF0002EE0199B1B9A18991A980293049201912E
:103C00000390179800902B480068E100475814A8CB
:103C10000DC80890139807900899B847054617E013
:103C20001A9B1B9A1C991998039304920591029070
:103C300018991798019100901E480068E700C05934
:103C4000079013A80FC80890079FB847054600BF04
:103C500000BF00F067FA08A8007901280DD11548C7
:103C6000C07D002804D129461CA0FDF79BFD07E07C
:103C700029461CA0FDF796FD02E019A0FDF792FD74
:103C80000C48E030007B002812D00A498031086FD0
:103C90000A21FCF74BFA0F4606498031086F0A21CA
:103CA000FCF744FA3A460146089011A0FDF77AFD68
:103CB00000BFB6E6880100200D0A25732800000029
:103CC0002563000025730000256C750030582558C9
:103CD000000000002C000000290000003D256C754C
:103CE0003B0D0A003D305825583B0D0A00000000EE
:103CF00046756E6374696F6E2052756E2054696DDF
:103D0000653A25642E2531646D730D0A00000000AC
:103D1000F0B50346154600200022002600245CE092
:103D20001F782C2F02D1002C00D101221F78292FBF
:103D300002D01F78002F02D1002C00D14EE0002EBF
:103D400036D11F78302F02DB1F78392F11DD1F7815
:103D5000612F02DB1F78662F0BDD1F78412F02DBFE
:103D60001F78462F05DD1F78582F02D01F78782F37
:103D70000DD1002A00D031E01F78612F03DB1F78BE
:103D8000203F0F7001E01F780F70491C22E01F7860
:103D9000222F05D1002A00D020E00126012419E0BD
:103DA0001F78202F16D01F782C2F13D0FF2615E058
:103DB0001F78222F00D10024002A00D00EE0002C12
:103DC00008D01F785C2F02D15B1C471CF8B21F780B
:103DD0000F70491C471CF8B25B1CA1E700BF00270D
:103DE0000F702E70F0BD10B50446002010700BE06F
:103DF00020780870641C491C1078401C10701078E2
:103E0000984201DB012010BD2078202802D02078C4
:103E10000028EDD10020087000BFF4E7FFB587B09F
:103E200000270020059004900120039000200090BE
:103E30000025079C1EE02078202817D06806400E39
:103E4000052813DA002D01D1802005436806400EB5
:103E5000042803D120782A2800D00EE020786906B3
:103E6000490E01AA5054681CC5B202E0852D00D14C
:103E700003E0641C20780028DDD100BF002D12D0A3
:103E800000206906490E01AA505458A101A800F06B
:103E900074FA002803D100210A98017002E0012180
:103EA0000A980170002500200690079C14E0641C0D
:103EB0000698401CC0B206902078202802D02078B6
:103EC0002A2809D1204600F0E5F90646282E03D01D
:103ED0002A2E01D0069805902078282802D0207834
:103EE0000028E4D1079C0598002802D00598401CC2
:103EF00024180020069000265EE02078002802D1D9
:103F00000120069059E02078282804D1002E02D103
:103F1000781CC7B217E0207829280BD1002E09D1D0
:103F2000002F02D0781EC7B201E001200690002FBA
:103F300009D142E02078222805D1002E01D10120AC
:103F400000E000200646002F09D12078202832D03A
:103F50002178089801700898401C08902BE0207880
:103F60002C2804D101200390681CC5B216E02078EB
:103F7000202813D02078282810D0002D0AD10098AE
:103F8000052807DA217801AA009811540098401CEE
:103F9000C0B200900398401CC0B20390012F0AD118
:103FA0000398022807D10398401CC0B203900498DC
:103FB000401CC0B20490641C9FE700BF0498012815
:103FC0000AD1002101AA0098115408A101A800F00B
:103FD000D4F9002800D104900999049808700021B0
:103FE0000898017006980BB0F0BD0000766F696408
:103FF00000000000F0B5B7B005460F4600240026CB
:1040000004E000213E488155701CC6B20A2EF8DB40
:1040100006E06D1C2878002802D1012037B0F0BDE1
:1040200028782828F5D16D1C64E036AA01A9284615
:10403000FFF76EFE0646AD1930A8007E002804D0BA
:10404000012829D0FF284DD14AE068460079002890
:1040500021D035A901A800F028F90646002E01D08C
:104060000220DBE7204600F04DF825490A31359A59
:104070000A5008462438008B0121A140884320497A
:104080001A39088304211E480155601CC4B20A2C49
:1040900001DD0320C2E725E001A800F08CF9401CF7
:1040A000C0B23490204600F02DF815490A3140186E
:1040B0000146009001A800F072F911481A38008BEF
:1040C0000121A14008430E491A3908831A31349856
:1040D0000855601CC4B20A2C01DD03209EE701E0F4
:1040E00002209BE700BF2878292802D028780028E2
:1040F00000D100E099E700BF3C7000208EE700008F
:10410000A201002002460020002105E0044B5B5C78
:104110001B18D8B24B1CD9B29142F7DB7047000094
:10412000A201002010B501210A48FDF798F80128E6
:1041300005D10948006F094941180748016705483A
:10414000FDF78AF80449096F411803480167006FB9
:1041500010BD00000020004008020020FFFF00000A
:1041600010B50446204664225043401E81B27D2093
:10417000C000FDF7DDF801200149C87510BD000041
:104180008801002010B50246012002E00346534397
:1041900018460B464C1EE1B2002BF7D110BD0000B3
:1041A00010B501210748FDF743F807490548FDF719
:1041B0007DF800210348FDF77BF8002103480167E3
:1041C00010BD000000200040FFFF0000080200209A
:1041D00070B51F4800880121C9030840002835D068
:1041E0001B48057800201B4948551B488168194821
:1041F00088470446002C03D11749C868804722E04D
:10420000144800F0E5F80546012D00D02C46002C9E
:1042100019D0012C06D0022C08D0032C0AD0042C73
:1042200010D10BE00DA0FDF7BDFA0BE00EA0FDF7DD
:10423000B9FA07E00FA0FDF7B5FA03E010A0FDF70B
:10424000B1FA00BF00BF00200149088070BD000026
:10425000000000208002002088010020BAAFCAFDC3
:10426000B4EDCEF3210D0A00B2CECAFDB4EDCEF30B
:10427000210D0A00B2CECAFDCCABB6E0210D0A007A
:10428000CEB4D5D2B5BDC6A5C5E4B5C4BAAFCAFDD6
:10429000210D0A000146491C00E0491C087820282D
:1042A00001D10029F9D108787047FCB507460E46C0
:1042B00000250A2000903C46002030601FE0207856
:1042C000392802DC207830280ADA2078462802DCF7
:1042D0002078412804DA2078582809D1012D07D107
:1042E0002078412801DB10200090681CC5B205E051
:1042F0002078002800D103E00120FCBD641CDEE72B
:1043000000BF3C46009810280FD1032D01DA02208F
:10431000F3E72078302806D16078582803D1A41C10
:10432000A81EC5B205E00320E7E7002D01D1042057
:10433000E3E71EE0002D01D0681EC5B220783928C1
:1043400006DC2078302803DB20783038019002E04A
:1043500020783738019029460098FFF713FF01991C
:104360004843316840183060641C2078002800D130
:1043700000E0DFE700BF0020BFE702460BE0107857
:104380000B78984201D0012070471078002800D1A6
:1043900002E0521C491CF2E700BF0020F4E707E0EE
:1043A00002780A700278002A00D102E0401C491C01
:1043B000F6E700BF70470146002006E00A78002AB1
:1043C00000D103E0421CD0B2491CF7E700BF7047A0
:1043D00010B58CB004461E230BAA03A92046FFF794
:1043E00002FD00900098002802D001200CB010BD02
:1043F00008A8007B241800210B910FE008A8007B7F
:1044000080003F4A115803A8FFF7B7FF002800D1EA
:1044100008E008A8007B401CC1B20B9108A8007BF3
:104420000728EBD300BF08A8007B0300FDF7E1F9E4
:104430000705063D5F666564630000BF31A0FDF7B8
:10444000B1F931A0FDF7AEF93FA0FDF7ABF94EA0F1
:10445000FDF7A8F95CA0FDF7A5F96BA0FDF7A2F99F
:1044600079A0FDF79FF986A0FDF79CF98BA0FDF7D9
:1044700099F990A0FDF796F994A0FDF793F999A00A
:10448000FDF790F99EA0FDF78DF9A4A0FDF78AF93C
:10449000B0A0FDF787F9BDA0FDF784F9C8A0FDF72E
:1044A00081F9D4A0FDF77EF99EE216A0FDF77AF916
:1044B000E0A0FDF777F900200B900EE0ED480268D0
:1044C00008A8007BC00010184168EBA0FDF76AF94E
:1044D00008A8007B401CC1B20B91E648007D08A9EA
:1044E000097B8842EADC07A0FDF75CF97CE205A0C5
:1044F000FDF758F9C4E175E247E219E2EBE100008B
:104500003C0100200D0A00002D2D2D2D2D2D2D2DCF
:104510002D2D2D2D2D2D2D2D2D2D2D2D2D2D2D2DCB
:1045200055534D4152542056332E312D2D2D2D2DC6
:104530002D2D2D2D2D2D2D2D2D2D2D2D2D2D2D2DAB
:104540002D2D2D200D0A00002020202055534D41F7
:104550005254CAC7D3C9414C49454E54454BBFAAD2
:10456000B7A2B5C4D2BBB8F6C1E9C7C9B5C4B4AE29
:10457000BFDAB5F7CAD4BBA5BDBBD7E9BCFE2CCD0D
:10458000A8B9FD200D0A0000CBFC2CC4E3BFC9D2A2
:10459000D4CDA8B9FDB4AEBFDAD6FACAD6B5F7D332
:1045A000C3B3CCD0F2C0EFC3E6B5C4C8CEBACEBA5E
:1045B000AFCAFD2CB2A2D6B4D0D02ED2F2B4CB2C3E
:1045C000C4E3BFC90D0A0000D2D4CBE6D2E2B8FCE6
:1045D000B8C4BAAFCAFDB5C4CAE4C8EBB2CECAFD0E
:1045E00028D6A7B3D6CAFDD7D62831302F3136BD4D
:1045F000F8D6C629A1A2D7D6B7FBB4AEA1A2BAAF4E
:10460000CAFDC8EB0D0A0000BFDAB5D8D6B7B5C8E9
:10461000D7F7CEAAB2CECAFD292CB5A5B8F6BAAF47
:10462000CAFDD7EEB6E0D6A7B3D63130B8F6CAE4A5
:10463000C8EBB2CECAFD2CB2A2D6A7B3D6BAAFCAC7
:10464000FDB7B5200D0A0000BBD8D6B5CFD4CABE81
:104650002ED0C2D4F6B2CECAFDCFD4CABEBDF8D6D3
:10466000C6C9E8D6C3B9A6C4DC2CD0C2D4F6BDF8FE
:10467000D6C6D7AABBBBB9A6C4DC2E0D0A00000063
:10468000BCBCCAF5D6A7B3D63A7777772E6F7065DC
:104690006E6564762E636F6D0D0A000055534D41B3
:1046A0005254D3D037B8F6CFB5CDB3C3FCC1EE3A30
:1046B0000D0A00003F3A202020202020BBF1C8A195
:1046C000B0EFD6FAD0C5CFA20D0A000068656C70B5
:1046D0003A202020BBF1C8A1B0EFD6FAD0C5CFA2B6
:1046E0000D0A00006C6973743A202020BFC9D3C33F
:1046F000B5C4BAAFCAFDC1D0B1ED0D0A0A000000C1
:1047000069643A2020202020BFC9D3C3BAAFCAFDB4
:10471000B5C44944C1D0B1ED0D0A0A006865783AC4
:1047200020202020B2CECAFD3136BDF8D6C6CFD467
:10473000CABE2CBAF3B8FABFD5B8F12BCAFDD7D68A
:10474000BCB4D6B4D0D0BDF8D6C6D7AABBBB0D0A70
:104750000A0000006465633A20202020B2CECAFD22
:104760003130BDF8D6C6CFD4CABE2CBAF3B8FABF22
:10477000D5B8F12BCAFDD7D6BCB4D6B4D0D0BDF8CD
:10478000D6C6D7AABBBB0D0A0A00000072756E74AC
:10479000696D653A312CBFAAC6F4BAAFCAFDD4CB55
:1047A000D0D0BCC6CAB13B302CB9D8B1D5BAAFCA8B
:1047B000FDD4CBD0D0BCC6CAB13B0D0A0A00000064
:1047C000C7EBB0B4D5D5B3CCD0F2B1E0D0B4B8F12A
:1047D000CABDCAE4C8EBBAAFCAFDC3FBBCB0B2CE17
:1047E000CAFDB2A2D2D4BBD8B3B5BCFCBDE1CAF8F5
:1047F0002E0D0A002D2D2D2D2D2D2D2D2D2D2D2D58
:104800002D2D2D2D2D2D2D2D2D2D2D2D2D2D414CA5
:1048100049454E54454B2D2D2D2D2D2D2D2D2D2D16
:104820002D2D2D2D2D2D2D2D2D2D2D2D2D2D2D20C5
:104830000D0A00002D2D2D2D2D2D2D2D2D2D2D2D45
:104840002D2D2D2D2D2D2D2D2D2D2D2D2DBAAFCAEC
:10485000FDC7E5B5A52D2D2D2D2D2D2D2D2D2D2D66
:104860002D2D2D2D2D2D2D2D2D2D2D2D2D2D2D2D78
:10487000200D0A008801002025730D0A00000000A9
:104880005BA0FCF78FFF00200B901AE068490A68D4
:1048900008A9097BC900511801AB02AA486803A9FD
:1048A000FFF7BCFA6248016808A8007BC0000A58FC
:1048B00003A960A0FCF776FF08A8007B401CC1B2EA
:1048C0000B915B48007D08A9097B8842DEDC5EA075
:1048D000FCF768FF88E05CA0FCF764FF0BAA03A963
:1048E0002046FFF715FA08A8007B00281AD1694670
:1048F00003A8FFF7DAFC0B9008A9087B002804D175
:1049000052A00099FCF74EFF0EE008A8007B042897
:1049100001D002206AE550A0FCF744FF0120444981
:10492000C87501E0022061E547A0FCF73BFF5BE0B2
:1049300045A0FCF737FF0BAA03A92046FFF7E8F9CB
:1049400008A8007B00281AD1694603A8FFF7ADFC30
:104950000B9008A9087B002804D144A00099FCF71B
:1049600021FF0EE008A8007B042801D002203DE5CD
:1049700041A0FCF717FF00202D49C87501E0022077
:1049800034E531A0FCF70EFF2EE02FA0FCF70AFF64
:104990000BAA03A92046FFF7BBF908A8007B002853
:1049A0001AD1694603A8FFF780FC0B9008A9087B81
:1049B00000280FD10098C1B21D48E0300173007B80
:1049C000002803D031A0FCF7EDFE07E036A0FCF78D
:1049D000E9FE03E0022009E5022007E51AA0FCF742
:1049E000E1FE01E0012001E500BF0020FEE400003F
:1049F0002D2D2D2D2D2D2D2D2D2D2D2D2D2D2D2DE7
:104A00002D2D2D2D2D2D2D2D2DBAAFCAFD20494434
:104A1000202D2D2D2D2D2D2D2D2D2D2D2D2D2D2DD3
:104A20002D2D2D2D2D2D2D2D2D2D2D2D200D0A0033
:104A30008801002025732069642069733A0D0A30CB
:104A400058253038580D0A000D0A00004845583ADC
:104A5000305825580D0A00003136BDF8D6C6B2CE02
:104A6000CAFDCFD4CABE210D0A0000004445433A16
:104A7000256C750D0A0000003130BDF8D6C6B2CEE7
:104A8000CAFDCFD4CABE210D0A00000052756E20A7
:104A900054696D652043616C63756C6174696F6EF8
:104AA000204F4E0D0A00000052756E2054696D654E
:104AB0002043616C63756C6174696F6E204F46466C
:104AC0000D0A0000FFB581B005460E4617460024CA
:104AD000FDF7E4FB0090012109031A48FCF71CF8DC
:104AE00000BF0EE0315D1848FCF76EFA00BF0121EF
:104AF0001548FCF723FA0028F9D01348FCF754FABC
:104B0000641CAC42EEDB00240FE00498015D0E480B
:104B1000FCF75AFA00BF01210B48FCF70FFA0028F6
:104B2000F9D00948FCF740FA641CBC42EDD30121DE
:104B300009030448FBF7F2FF0098FDF799FB0020FA
:104B400005B0F0BD0004004800380040000001023C
:104B500003040005405C0000A05C0400C06C080079
:104B6000805C0400E03F1E00E07D1E000704000999
:104B70000805400809104008080540081D04000801
:104B80001D0400081E265626BEBED8BC07A9022555
:104B900070889B88401008000A001600010006007B
:104BA0000100020087008D002D001A3152001A33D7
:104BB0009A001A351D011A376B003B31BE003B339A
:104BC0005E013B3596023B37000098599859EA51EF
:104BD0008E421E45142E0080EA51F4283233E03A0A
:104BE000703DE03AC235842BC2353233C235C2350E
:104BF000AE47E03A5038A230503800003F00000085
:104C0000646563006964000072756E74696D6500A7
:104C100068656C70000000006C697374000000002F
:104C200068657800766F696420726561645F746599
:104C3000737428756E7369676E656420636861724A
:104C40002061646429000000766F696420537973E1
:104C500074656D5F476574436C6F636B7328766F23
:104C600069642900766F696420756E6C6F636B668A
:104C70006C61736828756E7369676E656420696E10
:104C8000742070617373776429000000766F696423
:104C90002064656C61795F6D732875696E74313657
:104CA0005F74206E6D732900766F69642067657488
:104CB0004944732875696E743820696E6465782973
:104CC00000000000766F6964206765745359537360
:104CD00074617475732875696E743820696E6465C3
:104CE00078290000044D0008000000208002000028
:104CF00014070008B44D0008800200206805000079
:104D00001E18000881300802020802090901500833
:104D100021042617261633290A32444B38030C0285
:104D20001B552920BA660EF2771CFBFB0F69E914AC
:104D3000195B190324FBFB068A04132A05081910C2
:104D400019164909026807197A512D010203040452
:104D500035060708097B6CDCBA691613FC4B14088E
:104D6000104C1B0818041A04041A20041119041A00
:104D70000804136D071B088C08135D111B084808F5
:104D800013212D1B08C40813F52C1B08A80813AD0C
:104D9000341B0824081371381B08640813580114C5
:104DA000206141140861391408153A1B08D10C1907
:044DB000FC02E00120
:04000005080000C12E
:00000001FF
